{
  "contractName": "Voter",
  "abi": [
    {
      "constant": true,
      "inputs": [
        {
          "internalType": "uint256",
          "name": "",
          "type": "uint256"
        }
      ],
      "name": "options",
      "outputs": [
        {
          "internalType": "string",
          "name": "",
          "type": "string"
        }
      ],
      "payable": false,
      "stateMutability": "view",
      "type": "function"
    },
    {
      "constant": true,
      "inputs": [
        {
          "internalType": "uint256",
          "name": "",
          "type": "uint256"
        }
      ],
      "name": "votes",
      "outputs": [
        {
          "internalType": "uint256",
          "name": "",
          "type": "uint256"
        }
      ],
      "payable": false,
      "stateMutability": "view",
      "type": "function"
    },
    {
      "constant": false,
      "inputs": [
        {
          "internalType": "string",
          "name": "option",
          "type": "string"
        }
      ],
      "name": "addOption",
      "outputs": [],
      "payable": false,
      "stateMutability": "nonpayable",
      "type": "function"
    },
    {
      "constant": false,
      "inputs": [],
      "name": "startVoting",
      "outputs": [],
      "payable": false,
      "stateMutability": "nonpayable",
      "type": "function"
    },
    {
      "constant": false,
      "inputs": [
        {
          "internalType": "uint256",
          "name": "option",
          "type": "uint256"
        }
      ],
      "name": "vote",
      "outputs": [],
      "payable": false,
      "stateMutability": "nonpayable",
      "type": "function"
    },
    {
      "constant": false,
      "inputs": [
        {
          "internalType": "string",
          "name": "option",
          "type": "string"
        }
      ],
      "name": "vote",
      "outputs": [],
      "payable": false,
      "stateMutability": "nonpayable",
      "type": "function"
    },
    {
      "constant": true,
      "inputs": [],
      "name": "getVotes",
      "outputs": [
        {
          "internalType": "uint256[]",
          "name": "",
          "type": "uint256[]"
        }
      ],
      "payable": false,
      "stateMutability": "view",
      "type": "function"
    }
  ],
  "bytecode": "0x608060405234801561001057600080fd5b506109da806100206000396000f3fe608060405234801561001057600080fd5b506004361061007d5760003560e01c8063409e22051161005b578063409e2205146101195780635df81330146101c0578063edc550dc14610202578063fc36e15b146102bd5761007d565b80630121b93f146100825780630dc96015146100b05780631ec6b60a1461010f575b600080fd5b6100ae6004803603602081101561009857600080fd5b8101908080359060200190929190505050610378565b005b6100b8610496565b6040518080602001828103825283818151815260200191508051906020019060200280838360005b838110156100fb5780820151818401526020810190506100e0565b505050509050019250505060405180910390f35b6101176104ee565b005b6101456004803603602081101561012f57600080fd5b8101908080359060200190929190505050610632565b6040518080602001828103825283818151815260200191508051906020019080838360005b8381101561018557808201518184015260208101905061016a565b50505050905090810190601f1680156101b25780820380516001836020036101000a031916815260200191505b509250505060405180910390f35b6101ec600480360360208110156101d657600080fd5b81019080803590602001909291905050506106eb565b6040518082815260200191505060405180910390f35b6102bb6004803603602081101561021857600080fd5b810190808035906020019064010000000081111561023557600080fd5b82018360208201111561024757600080fd5b8035906020019184600183028401116401000000008311171561026957600080fd5b91908080601f016020809104026020016040519081016040528093929190818152602001838380828437600081840152601f19601f82011690508083019250505050505050919291929050505061070c565b005b610376600480360360208110156102d357600080fd5b81019080803590602001906401000000008111156102f057600080fd5b82018360208201111561030257600080fd5b8035906020019184600183028401116401000000008311171561032457600080fd5b91908080601f016020809104026020016040519081016040528093929190818152602001838380828437600081840152601f19601f820116905080830192505050505050509192919290505050610768565b005b600460009054906101000a900460ff1661039157600080fd5b806000111580156103a6575060038054905081105b6103af57600080fd5b600160003373ffffffffffffffffffffffffffffffffffffffff1673ffffffffffffffffffffffffffffffffffffffff16815260200190815260200160002060009054906101000a900460ff161561040657600080fd5b60018060003373ffffffffffffffffffffffffffffffffffffffff1673ffffffffffffffffffffffffffffffffffffffff16815260200190815260200160002060006101000a81548160ff02191690831515021790555060016000828154811061046c57fe5b9060005260206000200154016000828154811061048557fe5b906000526020600020018190555050565b606060008054806020026020016040519081016040528092919081815260200182805480156104e457602002820191906000526020600020905b8154815260200190600101908083116104d0575b5050505050905090565b600460009054906101000a900460ff161561050857600080fd5b60038054905060008161051b91906108b8565b5060008090505b600380549050811015610614576105376108e4565b60405180604001604052808381526020016001151581525090508060026003848154811061056157fe5b9060005260206000200160405180828054600181600116156101000203166002900480156105c65780601f106105a45761010080835404028352918201916105c6565b820191906000526020600020905b8154815290600101906020018083116105b2575b505091505090815260200160405180910390206000820151816000015560208201518160010160006101000a81548160ff021916908315150217905550905050508080600101915050610522565b506001600460006101000a81548160ff021916908315150217905550565b6003818154811061063f57fe5b906000526020600020016000915090508054600181600116156101000203166002900480601f0160208091040260200160405190810160405280929190818152602001828054600181600116156101000203166002900480156106e35780601f106106b8576101008083540402835291602001916106e3565b820191906000526020600020905b8154815290600101906020018083116106c657829003601f168201915b505050505081565b600081815481106106f857fe5b906000526020600020016000915090505481565b600460009054906101000a900460ff161561072657600080fd5b6003819080600181540180825580915050906001820390600052602060002001600090919290919091509080519060200190610763929190610900565b505050565b600460009054906101000a900460ff1661078157600080fd5b600160003373ffffffffffffffffffffffffffffffffffffffff1673ffffffffffffffffffffffffffffffffffffffff16815260200190815260200160002060009054906101000a900460ff16156107d857600080fd5b6107e06108e4565b6002826040518082805190602001908083835b6020831061081657805182526020820191506020810190506020830392506107f3565b6001836020036101000a0380198251168184511680821785525050505050509050019150509081526020016040518091039020604051806040016040529081600082015481526020016001820160009054906101000a900460ff1615151515815250509050806020015161088957600080fd5b600081600001518154811061089a57fe5b90600052602060002001600081548092919060010191905055505050565b8154818355818111156108df578183600052602060002091820191016108de9190610980565b5b505050565b6040518060400160405280600081526020016000151581525090565b828054600181600116156101000203166002900490600052602060002090601f016020900481019282601f1061094157805160ff191683800117855561096f565b8280016001018555821561096f579182015b8281111561096e578251825591602001919060010190610953565b5b50905061097c9190610980565b5090565b6109a291905b8082111561099e576000816000905550600101610986565b5090565b9056fea265627a7a72315820b522e7c8ef69b62c69d017ca6875ffc0128f2423fffa4524dde6f68aa8f8bbfb64736f6c63430005100032",
  "source": "pragma solidity <= 0.8.0;\n// pragma experimental ABIEncoderV2;\n\ncontract Voter {\n\n    struct OptionPos {\n        uint pos;\n        bool exists;\n    }\n\n    uint[] public votes;\n    mapping (address => bool) hasVoted;\n    mapping (string => OptionPos) posOfOption;\n    string[] public options;\n    bool votingStarted;\n\n    function addOption(string memory option) public {\n        require(!votingStarted);\n        options.push(option);\n    }\n\n    function startVoting() public {\n        require(!votingStarted);\n        votes.length = options.length;\n\n        for (uint i = 0; i < options.length; i++) {\n            OptionPos memory option = OptionPos(i, true);\n            posOfOption[options[i]] = option;\n        }\n        votingStarted = true;\n    }\n\n    function vote(uint option) public {\n        require(votingStarted);\n        require(0 <= option && option < options.length);\n        require(!hasVoted[msg.sender]);\n\n        hasVoted[msg.sender] = true;\n        votes[option] = votes[option] + 1;\n    }\n\n    function vote(string memory option) public {\n        require(votingStarted);\n        require(!hasVoted[msg.sender]);\n        OptionPos memory pos = posOfOption[option];\n        require(pos.exists);\n\n        votes[pos.pos]++;\n    }\n\n    function getVotes() public view returns (uint[] memory) {\n        return votes;\n    }\n}",
  "sourcePath": "C:/Users/Usuario/Desktop/Dapps/05_Truffle/contracts/Voter.sol",
  "compiler": {
    "name": "solc",
    "version": "0.5.16+commit.9c3226ce.Emscripten.clang"
  },
  "schemaVersion": "3.3.2",
  "updatedAt": "2020-12-11T18:06:46.749Z",
  "networkType": "ethereum",
  "devdoc": {
    "methods": {}
  },
  "userdoc": {
    "methods": {}
  }
}